202005010010000100000000000000000001000000000000000000018000000000030714295698ADHOC SA                      000000002029863000000000000000000000000000000000000000000000000000000000000000000000000000000000000000000000000000000000PES00010000002 00000000000000020200630
202005010010000100000000000000000002000000000000000000028000000000030714295698ADHOC SA                      000000002021863000000000000000000000000000000000000000008000000000000000000000000000000000000000000000000000000000000000PES00010000001E00000000000000020200630
202005010060000100000000000000000001000000000000000000018000000000027320732811Gritti Agrimensura            000000000004628000000000000000000000000000000000000000000000000000000000000000000000000000000000000000000000000000000000PES00010000001 00000000000000020200630
202005010190000200000000000000000005000000000000000000058000000000055000004102Expresso                      000000002013863000000000000000000000000000000000000000000000000000000000000000000000000000000000000000000000000000000000PES00010000001 00000000000000000000000
202005010030000100000000000000000011000000000000000000118000000000030714295698ADHOC SA                      000000002021863000000000000000000000000000000000000000008000000000000000000000000000000000000000000000000000000000000000PES00010000001E00000000000000020200501
202005010210000200000000000000000001000000000000000000018000000000055000004102Expresso                      000000002013863000000000000000000000000000000000000000000000000000000000000000000000000000000000000000000000000000000000PES00010000001 00000000000000000000000
202005030190000200000000000000000001000000000000000000018000000000027333333339Cerro Castor                  000000002746323000000000040000000000000000000000000000008000000000000000000000000000000000000000000000000000000000000000PES00010000003Z00000000000000000000000
202005030190000200000000000000000002000000000000000000028000000000055000004102Expresso                      000000002746323000000000040000000000000000000000000000008000000000000000000000000000000000000000000000000000000000000000PES00010000003X00000000000000000000000
202005050060000100000000000000000002000000000000000000028000000000030684679372Concejo Municipal de Rosario  000000002682323000000000000000000000000000000000000000000000000000000000000000000000000000000000000000000000000000000000PES00010000002 00000000000000020200630
202005130010000100000000000000000003000000000000000000038000000000030714295698ADHOC SA                      000000002746323000000000040000000000000000000000000000008000000000000000000000000000000000000000000000000000000000000000PES00010000003E00000000000000020200630
202005130010000100000000000000000004000000000000000000048000000000030714295698ADHOC SA                      000000002013863000000000000000000000000000000000000000000000000000000000000000000000000000000000000000000000000000000000DOL00010000001 00000000000000020200630
202005130010000100000000000000000005000000000000000000058000000000030714295698ADHOC SA                      000000000018513000000000000000000000000000000000000000000000000000000000000000000000000000000000000000000000000000000000PES00010000001 00000000000000020200630
202005130010000100000000000000000006000000000000000000068000000000030714295698ADHOC SA                      000000000032398000000000000000000000000000000000000000000000000000000000000000000000000000000000000000000000000000000000PES00010000001 00000000000000020200630
202005130010000100000000000000000007000000000000000000078000000000030714295698ADHOC SA                      000000000050911000000000000000000000000000000000000000000000000000000000000000000000000000000000000000000000000000000000PES00010000001 00000000000000020200630
202005130010000100000000000000000008000000000000000000088000000000030714295698ADHOC SA                      000000000000000000000000000000000000000000000000000000000000000000000000000000000000000000000000000000000000000000000000PES00010000001 00000000000000020200630
202005130010000100000000000000000009000000000000000000098000000000030714295698ADHOC SA                      000000000325975000000000000000000000000000000000000000000000000000000000000000000000000000000000000000000000000000000000PES00010000001 00000000000000020200630
202005130010000100000000000000000010000000000000000000108000000000030714295698ADHOC SA                      000000000356420000000000000000000000000000000000000000000000000000000000030000000000000010000000000000000000000000000000PES00010000003 00000000000001020200630
202005130060000100000000000000000003000000000000000000039900000000000000000000Consumidor Final Anónimo      000000000004628000000000000000000000000000000000000000000000000000000000000000000000000000000000000000000000000000000000PES00010000001 00000000000000020200630
202005200190000200000000000000000003000000000000000000038000000000055000004102Expresso                      000000002013863000000000000000000000000000000000000000000000000000000000000000000000000000000000000000000000000000000000PES00010000001 00000000000000000000000
202005200190000200000000000000000004000000000000000000048000000000055000004102Expresso                      000000000016510000000000000000000000000000000000000000000000000000000000000000000000000000000000000000000000000000000000PES00010000001 00000000000000000000000